{
  "contractName": "Mint",
  "abi": [
    {
      "constant": true,
      "inputs": [],
      "name": "name",
      "outputs": [
        {
          "internalType": "string",
          "name": "",
          "type": "string"
        }
      ],
      "payable": false,
      "stateMutability": "view",
      "type": "function"
    }
  ],
  "bytecode": "0x60806040526040518060400160405280601381526020017f4149204d696e74696e6720436f6e7472616374000000000000000000000000008152506000908051906020019061004f929190610062565b5034801561005c57600080fd5b50610107565b828054600181600116156101000203166002900490600052602060002090601f016020900481019282601f106100a357805160ff19168380011785556100d1565b828001600101855582156100d1579182015b828111156100d05782518255916020019190600101906100b5565b5b5090506100de91906100e2565b5090565b61010491905b808211156101005760008160009055506001016100e8565b5090565b90565b610186806101166000396000f3fe608060405234801561001057600080fd5b506004361061002b5760003560e01c806306fdde0314610030575b600080fd5b6100386100b3565b6040518080602001828103825283818151815260200191508051906020019080838360005b8381101561007857808201518184015260208101905061005d565b50505050905090810190601f1680156100a55780820380516001836020036101000a031916815260200191505b509250505060405180910390f35b60008054600181600116156101000203166002900480601f0160208091040260200160405190810160405280929190818152602001828054600181600116156101000203166002900480156101495780601f1061011e57610100808354040283529160200191610149565b820191906000526020600020905b81548152906001019060200180831161012c57829003601f168201915b50505050508156fea265627a7a72315820ba419d3bf6ae04b0dd21fcbb1c2f7d0734e98f165d278ad36ed18d4c222342e364736f6c63430005100032",
  "source": "// minting contract\npragma solidity ^0.5.0;\n\ncontract Mint {\n    string public name = \"AI Minting Contract\";\n\n    // // the owner of the contract\n    // address public owner;\n    // // the address of the token contract\n    // address public tokenAddress;\n    // // the amount of tokens to mint\n    // uint256 public amount;\n\n    // // constructor\n    // constructor(address _tokenAddress, uint256 _amount) public {\n    //     owner = msg.sender;\n    //     tokenAddress = _tokenAddress;\n    //     amount = _amount;\n    // }\n\n    // // mint tokens\n    // function mint() public {\n    //     // check if the caller is the owner\n    //     require(msg.sender == owner, \"Only the owner can mint tokens\");\n    //     // mint the tokens\n    //     ERC20(tokenAddress).mint(amount);\n    // }\n}\n\n\n",
  "sourcePath": "/Users/algobloom/Workspace/ai-nft-minting-dapp/src/contracts/Mint.sol",
  "compiler": {
    "name": "solc",
    "version": "0.5.16+commit.9c3226ce.Emscripten.clang"
  },
  "schemaVersion": "3.2.3",
  "updatedAt": "2023-02-04T02:42:43.150Z",
  "networkType": "ethereum",
  "devdoc": {
    "methods": {}
  },
  "userdoc": {
    "methods": {}
  }
}